:100000000C9465000C948D000C948D000C948D0064
:100010000C948D000C948D000C948D000C948D002C
:100020000C948D000C9440030C948D000C948D0066
:100030000C948D000C948D000C948D000C948D000C
:100040000C94C8010C948D000C948D000C948D00C0
:100050000C948D000C948D000C948D000C948D00EC
:100060000C9412020C948D009A039C039F03A1032D
:10007000A303A503A703A903000000002400270091
:100080002A0000000000250028002B0004040404BE
:100090000404040402020202020203030303030332
:1000A000010204081020408001020408102001020F
:1000B00004081020000000080002010000030407EB
:1000C0000000000000000000C70311241FBECFEF96
:1000D000D8E0DEBFCDBF11E0A0E0B1E0E0E9FBE099
:1000E00002C005900D92A232B107D9F723E0A2E237
:1000F000B1E001C01D92A93EB207E1F710E0C5E6EC
:10010000D0E004C02197FE010E94BB05C436D10790
:10011000C9F70E94E6030C94C6050C94000090E019
:10012000FC01EC54FF4F2491FC01E056FF4F349149
:10013000FC01E457FF4FE491EE2309F43CC0222375
:1001400039F1233091F038F42130A9F0223001F553
:1001500084B58F7D12C0273091F02830A1F0243073
:10016000B9F4809180008F7D03C0809180008F77EB
:10017000809380000DC084B58F7784BD09C08091C5
:10018000B0008F7703C08091B0008F7D8093B00066
:10019000F0E0EE0FFF1FEE57FF4FA591B4919FB710
:1001A000F894611104C08C913095382302C0EC9111
:1001B0003E2B3C939FBF089580914E0290E020918A
:1001C0004D02821B9109089508950895CF93DF93FE
:1001D000AC01E0914B02F0914C023097F1F090911C
:1001E0004D0280914E029817C0F090E0292F30E028
:1001F0002617370754F4D901AE5DBE4FEA01C20F8E
:10020000D31F28812C939F5FF1CF10924D026093F2
:100210004E02CB01DF91CF910994DF91CF910895E8
:10022000CF92DF92EF92FF920F931F93CF93DF93C2
:100230006C017A018B01C0E0D0E0CE15DF0581F0C2
:10024000D8016D918D01D601ED91FC910190F08165
:10025000E02DC6010995892B11F02196EECF7E0184
:10026000C701DF91CF911F910F91FF90EF90DF9029
:10027000CF90089585ED8093BC008091BC0084FDF3
:10028000FCCF1092480208954091AE01262F30E035
:10029000240F311D27343105DCF42091480224302D
:1002A000C9F4FC0180E090E0861758F43091AE016B
:1002B0002191DC01A859BE4FA30FB11D2C930196CB
:1002C000F3CF8091AE01680F6093AE0180E0089596
:1002D00081E0089582E008950895E0914D028091B3
:1002E0004E02E81730F4F0E0EE5DFE4F808190E0C2
:1002F00008958FEF9FEF089590914D0280914E02E7
:10030000981750F4E92FF0E0EE5DFE4F208130E0C9
:100310009F5F90934D0202C02FEF3FEFC9010895F8
:10032000CF93DF93CB01EA01642F0E944401CE01F9
:10033000DF91CF910895CF93DF931F92CDB7DEB7B2
:10034000698361E0CE0101960E94440181E090E062
:100350000F90DF91CF910895089580E090E0089587
:10036000683088F4483078F423E06202B001112448
:10037000E8E14E02600D711D1124FC018081918124
:10038000860F971F089580E090E008950E94C105B0
:100390001F920F920FB60F9211242F933F938F93BA
:1003A0009F93AF93BF938091540290915502A09177
:1003B0005602B09157023091530223E0230F2D379C
:1003C00020F40196A11DB11D05C026E8230F029659
:1003D000A11DB11D209353028093540290935502A6
:1003E000A0935602B093570280914F029091500211
:1003F000A0915102B09152020196A11DB11D8093AE
:100400004F0290935002A0935102B0935202BF91B9
:10041000AF919F918F913F912F910F900FBE0F90B1
:100420001F9018951F920F920FB60F9211242F93C1
:100430003F934F935F936F937F938F939F93AF936C
:10044000BF93EF93FF938091B900887F803609F4C2
:100450009CC068F5883209F45BC090F4803109F4DF
:1004600054C038F4882309F4F6C0883009F44DC02C
:10047000F6C0883109F44CC0803209F45DC0EFC089
:10048000803409F468C048F4803309F455C08833D7
:1004900009F0E5C08093F701D8C0803509F44FC05A
:1004A000883509F45DC0883409F0D9C0D6C08839D0
:1004B00009F4C7C0A8F4883709F467C038F488364F
:1004C00009F463C0803709F460C0C9C0883809F4F2
:1004D000B8C0803909F45FC0803809F0C0C05BC083
:1004E000803B09F486C038F4803A09F466C0883A43
:1004F00009F47FC0B4C0803C09F4A7C0883C09F46B
:10050000A4C0883B09F48AC0AAC08091400210C0F0
:1005100090913F0280913E02981770F5E0913F0262
:1005200081E08E0F80933F02F0E0E850FE4F808123
:100530008093BB0085EC86C08093F7018EC0E0916C
:100540003F0281E08E0F80933F028091BB00F0E07C
:10055000E850FE4F808390913F0280913E026EC032
:10056000E0913F0281E08E0F80933F028091BB00BB
:10057000F0E0E850FE4F80838091470281116DC00A
:1005800081E08093460284EA61C083E08093480260
:100590001092F601CFCF8091F601863408F051C059
:1005A000E091F60181E08E0F8093F6018091BB000F
:1005B000F0E0E055FE4F8083BDCF85EC8093BC001A
:1005C000109248028091F601863430F4E091F601F1
:1005D000F0E0E055FE4F10826091F60170E0E0918E
:1005E0004202F091430280EB91E009951092F601EE
:1005F00036C084E0809348021092AF011092AE01A1
:10060000E0914402F091450209958091AE0181117B
:1006100005C081E08093AE0110926801E091AF01C6
:1006200081E08E0F8093AF01F0E0E859FE4F8081AA
:100630008093BB009091AF018091AE01981708F4B0
:1006400079CF85E88093BC000AC085EC8093BC001C
:100650001092480204C01092F7010E943A01FF91E3
:10066000EF91BF91AF919F918F917F916F915F912A
:100670004F913F912F910F900FBE0F901F901895A3
:100680001F920F920FB60F9211242F933F934F9307
:100690005F936F937F938F939F93AF93BF93EF93EA
:1006A000FF93809141028093B2001BB815B8409A25
:1006B00041984091E80367E084EE93E00E94B00126
:1006C000FC019C0128513109928188E097FF02C00A
:1006D0005F9A01C05F98990F5E985E9A8150B1F75A
:1006E000918188E097FF02C05F9A01C05F98990FDF
:1006F0005E985E9A8150B1F7908188E097FF02C0C2
:100700005F9A01C05F98990F5E985E9A8150B1F729
:100710003397E217F307C1F6419A41988091E803B5
:10072000482F50E048305105B8F4FA01EC5CFF4F17
:100730000C94BB0591E001C092E095B90FC094E024
:10074000FCCF98E0FACF90E1F8CF90E2F6CF98E0B6
:1007500001C090E19BB902C01BB815B88F5F88300B
:1007600018F48093E80302C01092E803FF91EF9120
:10077000BF91AF919F918F917F916F915F914F91B9
:100780003F912F910F900FBE0F901F901895E8E5A5
:10079000F2E01382128288EE93E0A0E0B0E084835E
:1007A0009583A683B78384E191E09183808310923F
:1007B000E80384E692E09093E7038093E60384E203
:1007C00093E09093E5038093E4030895CF93DF9340
:1007D000CDB7DEB72D970FB6F894DEBF0FBECDBFF5
:1007E000789484B5826084BD84B5816084BD85B50C
:1007F000826085BD85B5816085BD80916E00816018
:1008000080936E00109281008091810082608093BD
:1008100081008091810081608093810080918000BF
:100820008160809380008091B10084608093B100EA
:100830008091B00081608093B00080917A008460E4
:1008400080937A0080917A00826080937A00809110
:100850007A00816080937A0080917A00806880932A
:100860007A001092C1008DE0E0E0F1E08E010F5FB0
:100870001F4FD80101900D928A95E1F778016E0122
:100880002EE0C20ED11CF70181917F01282F30E0AC
:10089000F901E056FF4F9491F901E457FF4F24917D
:1008A000222399F030E0220F331FF901E858FF4F5F
:1008B000A591B491F901EE57FF4F259134912FB7CF
:1008C000F894EC919E2B9C932FBF60E00E948F00C8
:1008D000EC14FD04C1F6429A4298429A1092E80341
:1008E0008091B10085608093B1008091B1008D7FCF
:1008F0008093B1008091B0008C7F8093B000809194
:10090000B60080628093B600809170008160809311
:1009100070008FEF8093B20083E680934102789459
:1009200080910D0190910E01A0910F0189839A830E
:10093000AB83F8944198409898E0FE0134968291F8
:10094000880F880F26E087FF02C05F9A01C05F987A
:10095000880F5E985E9A2150B1F7E017F10779F79A
:10096000915059F7409A7894E091E603F091E703AB
:100970008FEF808311821282E091E603F091E7030A
:10098000E354FF4F108211828283E091E603F091DD
:10099000E703E855FF4F108281831282E091E6035E
:1009A000F091E703158A868B178AF8948091E40307
:1009B0009091E5032091E6033091E7033093E5033E
:1009C0002093E4039093E7038093E60378941092D6
:1009D0004D0210924E0210924A0210924902109259
:1009E000480281E0809347021092460261E082E172
:1009F0000E948F0061E083E10E948F008091B90026
:100A00008E7F8093B9008091B9008D7F8093B9006B
:100A10008CE08093B80085E48093BC0085EE90E084
:100A2000909345028093440286EE90E090934302B7
:100A30008093420280EC8093BA0084EE90E0909321
:100A40004C0280934B0280E0C82E80E0D82E0091AB
:100A50004E0210E080914D029801281B3109233489
:100A600031050CF481C088E592E00E947C0140973A
:100A700081F080914D02F801E81BF1091E161F0656
:100A80000CF072C088E592E00E947C01809789F7A3
:100A90006BC088E592E00E947C01182F81111EC076
:100AA00000E0F12C4F2D602F86EE93E00E94B00104
:100AB0005C0188E592E00E947C01F5018083F3945B
:100AC000F8E0FF12EFCF0F5F083059F788E592E0AA
:100AD0000E947C01809709F047C032C08130B9F490
:100AE00000E0F12C4F2D602F86EE93E00E94B001C4
:100AF0005C0188E592E00E947C01F5018183F3941A
:100B0000F8E0FF12EFCF0F5F083059F7DFCF8230E8
:100B1000E9F600E0F12C4F2D602F86EE93E00E9465
:100B2000B0015C0188E592E00E947C01F5018283BE
:100B3000F394F8E0FF12EFCF0F5F083059F7C6CFFC
:100B4000123091F4F8948091E4039091E5032091A0
:100B5000E6033091E7033093E5032093E403909399
:100B6000E7038093E6037894C114D10409F46FCFAE
:100B70000E9400006CCFEE0FFF1F0590F491E02D56
:100B8000099481E090E0F8940C94C605F894FFCFA6
:100B90000E0F100304060708090A0B0C0D213F3F36
:100BA000000000009B019001AD016C01DC007C01A4
:020BB0006D01D5
:00000001FF
